:100000000C9417030C943F030C943F030C943F0390
:100010000C943F030C943F030C943F030C943F0358
:100020000C943F030C943F030C943F030C943F0348
:100030000C943F030C943F030C943F030C943F0338
:100040000C9479150C943F030C9447150C942115CE
:100050000C943F030C943F030C943F030C943F0318
:100060000C943F030C943F0300000000003E5B4FE4
:100070005B3E3E6B4F6B3E1C3E7C3E1C183C7E3C08
:10008000181C577D571C1C5E7F5E1C00183C180016
:10009000FFE7C3E7FF0018241800FFE7DBE7FF30A6
:1000A000483A060E2629792926407F050507407F14
:1000B00005253F5A3CE73C5A7F3E1C1C08081C1C87
:1000C0003E7F14227F22145F5F005F5F06097F017D
:1000D0007F006689956A606060606094A2FFA29468
:1000E00008047E040810207E201008082A1C080836
:1000F0001C2A08081E101010100C1E0C1E0C303884
:100100003E3830060E3E0E06000000000000005F84
:1001100000000007000700147F147F14242A7F2AA0
:100120001223130864623649562050000807030062
:10013000001C2241000041221C002A1C7F1C2A08AE
:10014000083E080800807030000808080808000011
:1001500060600020100804023E5149453E00427F85
:10016000400072494949462141494D331814127FD4
:100170001027454545393C4A494931412111090774
:100180003649494936464949291E000014000000F5
:1001900040340000000814224114141414140041C7
:1001A00022140802015909063E415D594E7C121184
:1001B000127C7F494949363E414141227F414141BC
:1001C0003E7F494949417F090909013E4141517337
:1001D0007F0808087F00417F41002040413F017FA8
:1001E000081422417F404040407F021C027F7F0470
:1001F00008107F3E4141413E7F090909063E4151B9
:10020000215E7F09192946264949493203017F01A8
:10021000033F4040403F1F2040201F3F4038403FA9
:10022000631408146303047804036159494D4300BF
:100230007F4141410204081020004141417F0402F6
:10024000010204404040404000030708002054548D
:1002500078407F284444383844444428384444286B
:100260007F385454541800087E090218A4A49C78BE
:100270007F0804047800447D40002040403D007F1A
:100280001028440000417F40007C047804787C08FA
:100290000404783844444438FC18242418182424CE
:1002A00018FC7C08040408485454542404043F44B3
:1002B000243C4040207C1C2040201C3C4030403CE2
:1002C00044281028444C9090907C4464544C440042
:1002D00008364100000077000000413608000201A6
:1002E0000204023C2623263C1EA1A161123A404092
:1002F000207A38545455592155557941225454780F
:1003000042215554784020545579400C1E527212A7
:100310003955555559395454545939555454580030
:1003200000457C410002457D420001457C407D1234
:1003300011127DF0282528F07C5455450020545496
:100340007C547C0A097F4932494949323A44444441
:100350003A324A4848303A4141217A3A424020787C
:10036000009DA0A07D3D4242423D3D4040403D3C7D
:1003700024FF2424487E4943662B2FFC2F2BFF09A2
:1003800029F620C0887E0903205454794100004496
:100390007D413048484A32384040227A007A0A0A81
:1003A000727D0D19317D2629292F282629292926F4
:1003B00030484D4020380808080808080808382F39
:1003C00010C8ACBA2F102834FA00007B00000814C3
:1003D0002A142222142A14085500550055AA55AA99
:1003E00055AAFF55FF55FF000000FF00101010FF39
:1003F00000141414FF001010FF00FF1010F010F094
:10040000141414FC001414F700FF0000FF00FF1484
:1004100014F404FC141417101F10101F101F1414D0
:10042000141F00101010F0000000001F101010101A
:100430001F10101010F010000000FF10101010100E
:1004400010101010FF10000000FF140000FF00FF4C
:1004500000001F10170000FC04F4141417101714E8
:1004600014F404F40000FF00F7141414141414140A
:10047000F700F7141414171410101F101F1414147D
:10048000F4141010F010F000001F101F0000001FE7
:1004900014000000FC140000F010F01010FF10FF1A
:1004A000141414FF141010101F00000000F010FFAF
:1004B000FFFFFFFFF0F0F0F0F0FFFFFF0000000093
:1004C00000FFFF0F0F0F0F0F3844443844FC4A4A17
:1004D0004A347E02020606027E027E0263554941CC
:1004E000633844443C04407E201E2006027E020203
:1004F00099A5E7A5991C2A492A1C4C7201724C3017
:100500004A4D4D303048784830BC625A463D3E49ED
:100510004949007E0101017E2A2A2A2A2A44445F91
:10052000444440514A444040444A51400000FF0185
:1005300003E080FF000008086B6B08361236243693
:10054000060F090F060000181800000010100030F8
:1005500040FF0101001F01011E00191D1712003C80
:100560003C3C3C000000000000000000240027008C
:100570002A00000000080002010000030407000038
:1005800000000000000004E010021C0712373229AE
:100590002D29252B3900010310E110031D07062E1C
:1005A0002C292D2E2E373F0000021013800A29809F
:1005B00064022A040000007F2B040000009F0F014A
:1005C00080961180FFB103012C2DB203012C2DB3B5
:1005D00006012C2D012C2DB40107C003A20284C1F9
:1005E00001C5C2020A00C3028A2AC4028AEEC501FA
:1005F0000E20003601C83A0105010204081020400F
:1006000080010204081020010204081020000000EC
:1006100000250028002B0004040404040404040240
:10062000020202020203030303030300C3151124A1
:100630001FBECFEFD8E0DEBFCDBF11E0A0E0B1E03C
:10064000E2E6F8E302C005900D92A037B107D9F7B2
:1006500022E0A0E7B1E001C01D92AF35B207E1F79B
:1006600013E0C7E1D3E004C02197FE010E94241CDF
:10067000C631D107C9F70E9496160C942F1C0C9412
:100680000000AF92BF92CF92DF92EF92FF920F9352
:100690001F93CF93DF936C017B018B01040F151F18
:1006A000EB015E01AE18BF08C017D10759F0699180
:1006B000D601ED91FC910190F081E02DC6010995E4
:1006C000892B79F7C501DF91CF911F910F91FF9091
:1006D000EF90DF90CF90BF90AF900895FC01538DC5
:1006E000448D252F30E0842F90E0821B930B54170C
:1006F00010F0CF96089501970895FC01918D828D99
:10070000981761F0A28DAE0FBF2FB11D5D968C9131
:10071000928D9F5F9F73928F90E008958FEF9FEF70
:100720000895FC01918D828D981731F0828DE80F2C
:10073000F11D858D90E008958FEF9FEF0895FC01E6
:10074000918D228D892F90E0805C9F4F821B9109B3
:100750008F73992708958AE791E00E949F0321E013
:10076000892B09F420E0822F089580E090E0892B06
:1007700029F00E94AB0381110C9400000895FC0144
:10078000A48DA80FB92FB11DA35ABF4F2C91848DF2
:1007900090E001968F739927848FA689B7892C934F
:1007A000A089B1898C91837080648C93938D848DA2
:1007B000981306C00288F389E02D80818F7D8083A5
:1007C0000895EF92FF920F931F93CF93DF93EC0165
:1007D00081E0888F9B8D8C8D98131AC0E889F989E8
:1007E000808185FF15C09FB7F894EE89FF896083EB
:1007F000E889F98980818370806480839FBF81E06C
:1008000090E0DF91CF911F910F91FF90EF900895AD
:10081000F62E0B8D10E00F5F1F4F0F731127E02E88
:100820008C8D8E110CC00FB607FCFACFE889F989C0
:10083000808185FFF5CFCE010E94BF03F1CFEB8D04
:10084000EC0FFD2FF11DE35AFF4FF0829FB7F89494
:100850000B8FEA89FB8980818062CFCFCF93DF93B2
:10086000EC01888D8823B9F0AA89BB89E889F989C8
:100870008C9185FD03C0808186FD0DC00FB607FCFD
:10088000F7CF8C9185FFF2CF808185FFEDCFCE0130
:100890000E94BF03E9CFDF91CF91089590E0FC0162
:1008A000EE58FA4F2491FC01E750FA4F3491FC01C5
:1008B000E95EF94FE491EE23C9F0222339F02330A9
:1008C00001F1A8F4213019F1223029F1F0E0EE0F06
:1008D000FF1FE35FF94FA591B4918FB7F894EC91A6
:1008E000611126C030953E233C938FBF0895273079
:1008F000A9F02830C9F0243049F7809180008F7D1D
:1009000003C0809180008F7780938000DFCF84B513
:100910008F7784BDDBCF84B58F7DFBCF8091B00016
:100920008F778093B000D2CF8091B0008F7DF9CFC8
:100930003E2BDACFCF93DF9390E0FC01E750FA4FE4
:100940002491895E994FFC0184918823D1F090E035
:10095000880F991FFC01E859FA4FA591B491FC0149
:10096000E35FF94FC591D49161110EC09FB7F89420
:100970008C91E22FE0958E238C932881E223E883EB
:100980009FBFDF91CF9108958FB7F894EC91E22B40
:10099000EC938FBFF6CF8E3008F08E50209100017F
:1009A00090E4299F900111248770822B80937C0012
:1009B00080917A00806480937A0080917A0086FD2D
:1009C000FCCF809178009091790008953FB7F8941A
:1009D0008091760190917701A0917801B091790191
:1009E00026B5A89B05C02F3F19F00196A11DB11D8A
:1009F0003FBFBA2FA92F982F8827BC01CD01620FC6
:100A0000711D811D911D42E0660F771F881F991F80
:100A10004A95D1F708958F929F92AF92BF92CF924D
:100A2000DF92EF92FF926B017C010E94E6044B0182
:100A30005C01C114D104E104F104B9F00E94E604A0
:100A4000681979098A099B09683E734081059105F7
:100A500080F321E0C21AD108E108F10888EE880E7F
:100A600083E0981EA11CB11CE4CFFF90EF90DF90B3
:100A7000CF90BF90AF909F908F900895FC01A5A15B
:100A8000B6A18C9192A589238C93A5A1B6A18C9136
:100A900091A5892B8C930895DC019396ED91FC919F
:100AA0009497908198968C91892380830895DC0196
:100AB0009396ED91FC919497908197968C91892BC8
:100AC00080830895DC019196ED91FC91929790813D
:100AD00096968C91892380830895DC019196ED91FF
:100AE000FC919297908195968C91892B80830895A3
:100AF000CF92DF92EF92FF921F93CF93DF93EC019F
:100B00006A017B018DA9811123C08F2D9927AA2706
:100B1000BB278EBD0DB407FEFDCFC701AA27BB279B
:100B20008EBD0DB407FEFDCFBB27AF2D9E2D8D2DA5
:100B30008EBD0DB407FEFDCFCEBC0DB407FEFDCFBC
:100B4000DF91CF911F91FF90EF90DF90CF900895AC
:100B50008130B1F410E2CE01F7FE0FC00E946D05A6
:100B6000CE010E945705CE010E944C05CC0CDD1C25
:100B7000EE1CFF1C115079F7E3CF0E946205F0CF05
:100B8000EF8DF8A18F2D9927AA27BB278083CE014F
:100B90000E943E05EF8DF8A1C701AA27BB278083DD
:100BA000CE010E943E05EF8DF8A1BB27AF2D9E2DF3
:100BB0008D2D8083CE010E943E05EF8DF8A1C0826D
:100BC000CE01DF91CF911F91FF90EF90DF90CF90FA
:100BD0000C943E05FF920F931F93CF93DF93EC018C
:100BE0008B018DA981110EC01EBD0DB407FEFDCF76
:100BF0000EBD0DB407FEFDCFDF91CF911F910F9178
:100C0000FF9008958130B1F490E1F92ECE0117FFE5
:100C10000EC00E946D05CE010E945705CE010E94B4
:100C20004C05000F111FFA94F110F0CFE5CF0E9490
:100C30006205F1CFEF8DF8A11083CE010E943E0531
:100C4000EF8DF8A10083CE01DF91CF911F910F911D
:100C5000FF900C943E050F931F93CF93DF93EC010D
:100C6000162F8DA9811109C06EBD0DB407FEFDCFF1
:100C7000DF91CF911F910F910895813099F408E091
:100C8000CE0117FF0CC00E946D05CE010E945705D2
:100C9000110FCE010E944C05015091F7E9CF0E943F
:100CA0006205F3CFEF8DF8A16083CE01DF91CF9184
:100CB0001F910F910C943E05CF93DF93EC01ED8DC6
:100CC000FE8D80819CA989238083CE010E942B0602
:100CD000ED8DFE8D80819BA9892B8083DF91CF9143
:100CE00008958F929F92AF92BF92CF92DF92EF9230
:100CF000FF920F931F93CF93DF93EC0189AD9AADD1
:100D0000680F791F8BAD9CAD480F591F21503109D9
:100D1000260F371F4901B12CA12CCB01B0E0A0E078
:100D2000DC0199278827882A992AAA2ABB2A6801E0
:100D300081E0C81AD108C40ED51EF12CE12C70E058
:100D400060E0BA0155274427C42AD52AE62AF72AA3
:100D50006AE2CE010E945C06B501A401CE010E94A8
:100D600078056BE2CE010E945C06B701A601CE01B8
:100D70000E9478056CE2CE01DF91CF911F910F9117
:100D8000FF90EF90DF90CF90BF90AF909F908F90AB
:100D90000C945C06FC0185A9811104C091A182A17B
:100DA0009CBD8DBD08951F93CF93DF93EC01162F4B
:100DB000E881F9810284F385E02D0995112371F012
:100DC0006DADCE010E945C06E881F9810688F78945
:100DD000E02DCE01DF91CF911F9109946EADF1CF3F
:100DE000AF92BF92CF92DF92EF92FF920F931F9339
:100DF000CF93DF93EC0177FD38C08885998568171C
:100E000079079CF557FD31C08A859B85481759079E
:100E100064F569017A015B01E881F9810284F38557
:100E2000E02DCE010995E881F98102A4F3A5E02D1A
:100E300001E010E021E030E0A701B501CE01099505
:100E4000B601CE010E94EA05E881F9810688F7899A
:100E5000E02DCE01DF91CF911F910F91FF90EF9088
:100E6000DF90CF90BF90AF900994DF91CF911F9109
:100E70000F91FF90EF90DF90CF90BF90AF900895CB
:100E80008F929F92AF92BF92CF92DF92EF92FF929A
:100E90000F931F93CF93DF93EC0149015701E88132
:100EA000F98102A4F3A5E02D09959401D8010E94CF
:100EB000061C6B017C01C114D104E104F10409F4A6
:100EC0007DC08DA9811115C081E0C81AD108E10843
:100ED000F1088FEFC816D806E806F80609F46EC0C8
:100EE000BEBC0DB407FEFDCFAEBC0DB407FEFDCFFA
:100EF000EBCF813099F581E0C81AD108E108F108FB
:100F00008FEFC816D806E806F80609F457C00B2D6F
:100F100018E0CE0107FF1CC00E946D05CE010E94A3
:100F20005705CE010E944C05000F115091F70A2D74
:100F300018E0CE0107FF0FC00E946D05CE010E9490
:100F40005705CE010E944C05000F115091F7D3CFE9
:100F50000E946205E3CF0E946205F0CFBA1016C06E
:100F6000CC0CDD1CEE1CFF1CEF8DF8A1B08281E0E3
:100F7000C81AD108E108F1088FEFC816D806E806AC
:100F8000F806E1F0CE010E943E05F1CF81E0C81ADB
:100F9000D108E108F1088FEFC816D806E806F80670
:100FA00069F0EF8DF8A1B082CE010E943E05EF8D71
:100FB000F8A1A082CE010E943E05E8CFDF91CF913B
:100FC0001F910F91FF90EF90DF90CF90BF90AF9067
:100FD0009F908F9008958F929F92AF92BF92CF92E1
:100FE000DF92EF92FF920F931F93CF93DF935C01F9
:100FF0004B016A01E90177FD52C0DC0118968D9121
:101000009C91681779070CF04AC0209709F447C0F3
:1010100037FF07C0C9010196C80ED91ED195C195E9
:10102000D109F50182859385C816D906C4F5A601B4
:101030004C0F5D1F9A012150310937FD30C0D7FE9A
:1010400003C0EA01D12CC12C281739071CF0EC0190
:10105000CC19DD09D501ED91FC910284F385E02DD9
:10106000C501099578018E0121E030E0A601B401A7
:10107000C5010E944007D501ED91FC910688F789D2
:10108000E02DC501DF91CF911F910F91FF90EF905F
:10109000DF90CF90BF90AF909F908F900994DF9199
:1010A000CF911F910F91FF90EF90DF90CF90BF9065
:1010B000AF909F908F9008958F929F92AF92BF9222
:1010C000CF92DF92EF92FF920F931F93CF93DF9314
:1010D0005C016B014A01E90157FD52C0DC011A961F
:1010E0008D919C91481759070CF04AC0209709F43C
:1010F00047C037FF07C0C9010196C80ED91ED19558
:10110000C195D109F50180859185C816D906C4F528
:10111000A6014C0F5D1F9A012150310937FD30C0E7
:10112000D7FE03C0EA01D12CC12C281739071CF0C7
:10113000EC01CC19DD09D501ED91FC910284F38518
:10114000E02DC5010995780101E010E09E01A401A0
:10115000B601C5010E944007D501ED91FC910688BA
:10116000F789E02DC501DF91CF911F910F91FF907D
:10117000EF90DF90CF90BF90AF909F908F900994A9
:10118000DF91CF911F910F91FF90EF90DF90CF9063
:10119000BF90AF909F908F9008958F929F92AF9243
:1011A000BF92CF92DF92EF92FF920F931F93CF9354
:1011B000DF934C016B015A01E901209709F46CC0DF
:1011C0000115110509F468C037FF07C0C901019670
:1011D000C80ED91ED195C195D109F401A085B1855C
:1011E000CA16DB060CF058C017FF07C0C8010196ED
:1011F000A80EB91E119501951109F40182859385F8
:10120000A816B9060CF048C0F601EC0FFD1FAF019F
:101210004150510957FD40C0B501600F711F9B013E
:101220002150310937FD38C0D7FE03C0EF01D12C62
:10123000C12CB7FE03C08B01B12CA12C4A175B0750
:101240001CF0ED01CC19DD09281739071CF08C01C1
:101250000A191B09D401ED91FC910284F385E02D5C
:10126000C40109959E01A501B601C4010E94400771
:10127000D401ED91FC910688F789E02DC401DF913E
:10128000CF911F910F91FF90EF90DF90CF90BF9083
:10129000AF909F908F900994DF91CF911F910F9104
:1012A000FF90EF90DF90CF90BF90AF909F908F9086
:1012B0000895EF92FF920F931F93CF93DF9377FDE3
:1012C00032C0DC011896ED91FC916E177F075CF53A
:1012D0002115310541F137FF07C0F90131964E0F55
:1012E0005F1F319521953109DC011A96ED91FC9132
:1012F0004E175F07C4F4EA01C20FD31FDE01119736
:10130000B7FD11C057FF03C09E0150E040E0AE178B
:10131000BF071CF09F01241B350B7801890121E0D8
:1013200030E00E944007DF91CF911F910F91FF9015
:10133000EF9008952F923F924F925F926F927F921B
:101340008F929F92AF92BF92CF92DF92EF92FF92D5
:101350000F931F93CF93DF93CDB7DEB72B970FB6C5
:10136000F894DEBF0FBECDBF3C017E836D835B87EB
:101370004A872F832801170181E090E06C01C41A8D
:10138000D50ACA019195819591099C01220F331FBD
:101390003A832983C80101969C838B83F12CE12C2D
:1013A00088248394912C9B012F5F3F4F3987288796
:1013B0008A859B85E816F9060CF06DC0AA84BB846B
:1013C000D7FC0CC05C0191E0A91AB10829813A81CF
:1013D0002E5F3F4F3A832983C20ED31E3FEFE31A9D
:1013E000F30A82E0880E911CC80CD91CAE14BF040D
:1013F00044F42A853B852A153B05D1F4BB86AA8691
:10140000D7CF9501220F331F4D815E814A195B09A9
:101410008F81813019F58B819C81280F391F8101C3
:10142000B701660D771D88E192E00E945909E1CF6E
:101430009F81913029F5940122503109240D351DE9
:101440006A857B85660D771D8101488559854E1912
:101450005F0988E192E00E945909D0CF8B819C817D
:10146000280F391F8101B3016E197F0988E192E0CD
:101470000E9459092A853B852A153B0509F4BECFF0
:10148000940122503109240D351DB3018A859B85B5
:10149000681B790BD9CF2B960FB6F894DEBF0FBE21
:1014A000CDBFDF91CF911F910F91FF90EF90DF9013
:1014B000CF90BF90AF909F908F907F906F905F90F4
:1014C0004F903F902F900895EF92FF920F931F93AC
:1014D000CF93DF9357FD31C0DC011A96ED91FC915B
:1014E0004E175F0754F52115310539F137FF07C055
:1014F000F90131966E0F7F1F319521953109DC017D
:101500001896ED91FC916E177F07BCF4EB01C20FAA
:10151000D31FDE011197B7FD10C077FF03C09E01F6
:1015200070E060E0AE17BF071CF09F01261B370B71
:10153000780101E010E00E944007DF91CF911F91F8
:101540000F91FF90EF9008958F929F92AF92BF926C
:10155000CF92DF92EF92FF920F931F93CF93DF937F
:1015600047012115310509F44BC00115110509F496
:1015700047C037FF07C0F90131966E0F7F1F3195C5
:1015800021953109DC011896AD90BC906A157B0558
:10159000BCF517FF07C0F80131964E0F5F1F11957C
:1015A00001951109DC011A96ED91FC914E175F0728
:1015B0003CF56B01C20ED31EE6012197D7FD20C07A
:1015C0007A01E00EF11ED7011197B7FD19C077FF20
:1015D00003C0960170E060E057FF03C0870150E050
:1015E00040E0CA15DB051CF09501261B370BAE1732
:1015F000BF071CF08F01041B150B74010E944007EC
:10160000DF91CF911F910F91FF90EF90DF90CF90DE
:10161000BF90AF909F908F900895EF92FF920F939D
:101620001F93CF93DF93EC0177FD22C088859985C6
:1016300068177907ECF457FD1BC08A859B8548170E
:101640005907B4F47901E881F98102A4F3A5E02DEA
:1016500001E010E021E030E0CE010995B701CE01B4
:10166000DF91CF911F910F91FF90EF900C94EA05BD
:10167000DF91CF911F910F91FF90EF900895CF933D
:10168000DF93EC010E94CA068FA987FD06C0EB8D8F
:10169000FC8D80819AA989238083DF91CF91089561
:1016A0000895AF92BF92CF92DF92EF92FF920F9385
:1016B0001F93CF93DF93BC016F5F7F4FFC011491A9
:1016C000115008F47AC0FB01D4917B01F2E0EF0ED7
:1016D000F11CFB0131960491C02FCF7788E192E095
:1016E0000E94CA0680914F0287FD09C0E091330233
:1016F000F0913402808190914A0289238083E091A5
:101700003502F0913602808190914C0289238083CA
:101710006D2F88E192E00E942B06E0913502F09156
:101720003602808190914B02892B8083F701B12C86
:10173000A12CD0E0AC16BD06F4F480914D026F01EF
:10174000823081F480914802882361F06191719127
:101750006F0188E192E00E94EA05EFEFAE1ABE0A3F
:10176000F601E8CF8FEFC81AD80A649188E192E0B9
:101770000E942B06F2CF80914F0287FD09C0E091B5
:101780003302F0913402808190914902892B808349
:10179000B7016C0F7D1F07FF93CFEB012196FB0173
:1017A000649170E06F3F710511F464EF71E090E0B7
:1017B00080E00E940B05BE0183CFDF91CF911F9186
:1017C0000F91FF90EF90DF90CF90BF90AF90089572
:1017D0000F931F93CF93DF93EC018B010E94CA06F6
:1017E0008FA987FD06C0EB8DFC8D80819AA9892386
:1017F0008083ED8DFE8D80819CA98923808366E3A3
:10180000CE010E942B06ED8DFE8D80819BA9892B38
:1018100080838DA9F801823091F06081CE010E9411
:101820002B068FA987FD06C0EB8DFC8D808199A9C1
:10183000892B8083DF91CF911F910F91089588A903
:10184000882359F360817181CE010E94EA05E9CFB6
:10185000CF93DF931F92CDB7DEB7FC01198263707F
:10186000668BDC01AD5BBF4F2C9130E011968C9103
:1018700090E0623031F06330C9F0613081F040ECCB
:10188000498332AF21AF94AF83AFBE016F5F7F4F0B
:10189000CF010E94E80B0F90DF91CF91089540EAAD
:1018A000498334AF23AF92AF81AFEFCF40E6F8CF9B
:1018B000CF93DF931F92CDB7DEB7FC01198263701F
:1018C000668BDC01AA5BBF4F8C91982F9B7FAF0189
:1018D0004C5B5F4F913031F493E0623008F091E05F
:1018E000DA019C939F012D5B3F4F623009F44CC09D
:1018F000633009F459C0613069F1823021F098EC0D
:10190000843009F046C090EC99838130D1F480E8AE
:1019100090E09387828791878087D9018C9190E0AE
:1019200092AF81AFDA018C9190E094AF83AFBE01AA
:101930006F5F7F4FCF010E94E80B0F90DF91CF9137
:101940000895843051F580EA90E09387828780E59E
:1019500090E0E1CF823019F098EA843061F590EAA6
:101960009983813091F580E890E091878087938713
:101970008287D9018C9190E094AF83AFDA018C918A
:1019800090E092AF81AFD3CF823039F08430D9F27A
:1019900098E09983813009F4BACF80EA90E0938788
:1019A000828780E890E0B7CF823019F098E68430E3
:1019B00011F490E6D5CF99838130A9F280EA90E0C6
:1019C0009187808780E890E0D2CF8430B9F780EAB1
:1019D00090E09187808780E590E0C9CFFC0187A9DE
:1019E00087FD06C0A38DB48D9C9181A9892B8C9312
:1019F00008954F925F926F927F928F929F92AF92D3
:101A0000BF92CF92DF92EF92FF920F931F93CF93EB
:101A1000DF933C01EB015A01690188E192E00E94E9
:101A20003F0B230185E0480E511C95012A503109D6
:101A300078018601AE01B20188E192E00E94A40A19
:101A40008BE0C81AD1082596C501860D971D860121
:101A500021E045E050E0BE0106970E949A0922E08D
:101A600045E050E0BE01C2010E949A0988E192E07F
:101A7000DF91CF911F910F91FF90EF90DF90CF906A
:101A8000BF90AF909F908F907F906F905F904F909E
:101A90000C94EE0C0895FC016370668B8481958133
:101AA00026813781613039F0633029F09187808752
:101AB0003387228708953187208793878287089507
:101AC0002F923F924F925F926F927F928F929F924E
:101AD000AF92BF92CF92DF92EF92FF920F931F933C
:101AE000CF93DF93CDB7DEB76A970FB6F894DEBF1A
:101AF0000FBECDBF9A8F898F7A8369834A01D22E18
:101B000018870F833701BC2CDC0159962D913C912D
:101B10005A972115310509F015C118968D919C91A0
:101B20001997681779070CF0D7C11A968D919C9177
:101B3000481759070CF0D0C14C2C512CB6E0CB9E65
:101B4000600D711D11247C876B87161617060CF02B
:101B5000C3C1EA2DF0E0FA87E98793E0EE0FFF1F9B
:101B60009A95E1F7F88BEF87CF01840F951F181630
:101B700019060CF0B1C1A98DBA8D58968C918111BE
:101B800004C0BFEABD1508F4D394A98DBA8DED91B8
:101B9000FC9111970284F385E02DCD010995B5E004
:101BA000DB9EC0011124E981FA81FC83EB83312C97
:101BB000212C9C0128593F4F388F2F8B4A2D50E004
:101BC0005E8B4D8BEF89F88DE20DF31D44919E8263
:101BD0008D82D12CC12C69817A81620D731D7A8B23
:101BE000698B842F90E09C8B8B8BE98DFA8DA08183
:101BF000B18140FF82C0F1E0BF126FC0AF126DC073
:101C00001C96ED91FC912F813885A4014C0D5D1D32
:101C100069897A89898D9A8D0995EB89FC89F59571
:101C2000E7954E2F5FEFC51AD50A6D817E818D89AC
:101C30009E89680F791F7E836D8398E0C916D10451
:101C400081F6AFEF2A1A3A0AEB81FC81E40DF51D0B
:101C5000FC83EB83F5E02F16310409F0B3CF2F811D
:101C6000388526153705B9F0A98DBA8DED91FC910F
:101C7000B1E0BB1257C0AB1255C069817A816B5F6E
:101C80007F4F0088F189E02D830128E030E0A40136
:101C9000898D9A8D0995A98DBA8DED91FC91119739
:101CA0000688F789E02DCD016A960FB6F894DEBF5D
:101CB0000FBECDBFDF91CF911F910F91FF90EF909D
:101CC000DF90CF90BF90AF909F908F907F906F905C
:101CD0005F904F903F902F9009941E96ED91FC914C
:101CE000EF80F88409851A8592014D815E816B81B0
:101CF0007C81898D9A8D099590CF2F813885261505
:101D0000370509F48ACF31E0B31207C0A31205C02A
:101D10001C96ED91FC91930178CF1E96ED91FC916C
:101D20007301E0CF6B857C85641975090684F7859E
:101D3000E02D73010F8518899201A401898D9A8D78
:101D40000995A9CFF9013496949132974591549110
:101D5000D91AB7E0DB9E400D511D1124F9012591E0
:101D600034913C8B2B8BFA0125903490FA013296FA
:101D7000749031963491398B3296649031964490B8
:101D800041E04C1518F04A1508F07FC0662D062C6E
:101D9000000C770B7C836B83842D042C000C990B37
:101DA0009E838D83A98DBA8DED91FC91119702844C
:101DB000F385E02DCD010995512CD12CC12CEA2DB4
:101DC000F0E0FA87E9872B2D30E03C872B87A401D0
:101DD000440D511D47FC5A95588F4F8B69817A816C
:101DE000660D711D67FC7A957E876D877989C716A8
:101DF00008F051CF2C2D30E04D815E81420F531FF2
:101E0000A985BA854A9FC0014B9F900D5A9F900D9E
:101E10001124FC01E80DF91DF88BEF87852D612C4D
:101E20004F89588D420F531F5E8B4D8B671408F0FE
:101E300050C044244394480E877041F4C101019678
:101E4000EB89FC89E20DF31DD4901C01D7FE19C06B
:101E5000A98DBA8DED91FC91662D70E0B1E0BB12B9
:101E600019C0AB1217C02D853E85620F731F048405
:101E7000F585E02D2F8138854D895E89898D9A8D74
:101E80000995DD0C6394842DD1CF1E821D821C82A6
:101E90001B8288CF4B815C81640F751FAB85BC852D
:101EA0006A9FC0016B9F900D7A9F900D11246981EC
:101EB0007A81680F791F0684F785E02DEF80F8841A
:101EC00009851A859D014F855889898D9A8D0995B7
:101ED000D8CF570CC3948ACF6A960FB6F894DEBF5A
:101EE0000FBECDBFDF91CF911F910F91FF90EF906B
:101EF000DF90CF90BF90AF909F908F907F906F902A
:101F00005F904F903F902F9008958F929F92AF9245
:101F1000CF92EF92FF920F931F93CF93DF93EC0139
:101F2000262F898D9A8D009709F051C06A30D1F41F
:101F30001D861C868D8948E0849F900111248E8522
:101F40009F85820F931F9F878E8781E090E0DF91AE
:101F5000CF911F910F91FF90EF90CF90AF909F90F6
:101F60008F9008956D3089F3CC88AD888F89882350
:101F7000C1F08C859D8536E0C39E800D911D112496
:101F8000488559854817590764F44E855F851D8635
:101F90001C8638E0A39EC0011124840F951F9F87E3
:101FA0008E87EA88FB88088919894E855F856C854C
:101FB0007D85CE010E94600D2C898C859D8546E033
:101FC000249F800D911D11249D878C87BECF6A3080
:101FD00069F41D861C86FC013896E4912D898E8556
:101FE0009F85E29F800D911D1124ADCF6D3009F4C6
:101FF000ACCFFC0134963491631708F4A6CF329627
:10200000E491E61708F4A1CFFC01329685909490F4
:10201000462F431B342F47E0349F800C911C112422
:10202000F401329634913196E4913323A9F1EE23F1
:1020300099F1CC88F4013596E491AD884F89442319
:1020400001F10E2E000CFF0BE30FF11DCE9EA0013F
:10205000CF9E500D11246C857D85460F571F6885D6
:102060007985641775076CF44E855F851D861C861F
:10207000FC013896E491AE9E400D511D11245F87FE
:102080004E87EA88FB88088919894E855F856C85AB
:102090007D85CE010E94600DF4013496E4912C8977
:1020A0008C859D85E29F800D911D11248DCF6F92AF
:1020B0007F928F929F92AF92BF92CF92DF92EF92D8
:1020C000FF920F931F93CF93DF93EC016B015A01A3
:1020D00039014801E881F9810284F385E02D0995F1
:1020E000E881F9810288F389E02D87019301A50138
:1020F000B601CE010995A501480D591D4150510960
:10210000E881F9810288F389E02D9301B601CE01BF
:102110000995E881F9810088F189E02D9401A501F4
:10212000B601CE010995C60CD71CB60161507109E4
:10213000E881F9810088F189E02D9401A501CE01A3
:102140000995E881F9810688F789E02DCE01DF91B4
:10215000CF911F910F91FF90EF90DF90CF90BF90A4
:10216000AF909F908F907F906F9009946F927F9225
:102170008F929F92AF92BF92CF92DF92EF92FF9297
:102180000F931F93CF93DF935C01EB016A01490129
:1021900038018701DC01ED91FC916217730719F595
:1021A000641675062CF0962D872D3A01C92ED82E6F
:1021B0009601261937092F5F3F4F048CF58DE02DCE
:1021C000A301BE01C5010995DF91CF911F910F9128
:1021D000FF90EF90DF90CF90BF90AF909F908F9047
:1021E0007F906F9008954615570591F4261737078D
:1021F00024F0892D4B01C22FD82F9E0128193909AF
:102200002F5F3F4F068CF78DE02DA601B401DACF8A
:102210000284F385E02D0995D501ED91FC910488A8
:10222000F589E02D83019401A601BE01C501099540
:10223000D501ED91FC910688F789E02DC501DF916C
:10224000CF911F910F91FF90EF90DF90CF90BF90B3
:10225000AF909F908F907F906F900994EF92FF9234
:102260000F931F93DC011A960D911C911B971896E2
:102270002D913C911997ED91FC9100A0F1A1E02DD9
:102280007B0150E040E070E060E009951F910F9104
:10229000FF90EF9008954F925F926F927F928F928E
:1022A0009F92AF92BF92CF92DF92EF92FF920F93E5
:1022B0001F93CF93DF936C012B015A013901480121
:1022C000DC01ED91FC910284F385E02D0995E2019A
:1022D000640C751CD601ED91FC91C615D7055CF414
:1022E0000088F189E02D87019401A501BE01C60196
:1022F00009952196EFCF0688F789E02DC601DF9179
:10230000CF911F910F91FF90EF90DF90CF90BF90F2
:10231000AF909F908F907F906F905F904F900994B7
:102320008F929F92AF92BF92CF92DF92EF92FF92E5
:102330000F931F93CF93DF93EC015B014A01690177
:10234000E881F9810284F385E02D099595012C0D32
:102350003D1D21503109E881F9810488F589E02D7E
:1023600078018401A401B501CE010995E881F981C4
:102370000688F789E02DCE01DF91CF911F910F9153
:10238000FF90EF90DF90CF90BF90AF909F908F9095
:1023900009948F929F92AF92BF92CF92DF92EF9269
:1023A000FF920F931F93CF93DF93EC015B014A01E0
:1023B00069017801E881F9810284F385E02D0995AE
:1023C000C80CD91C860101501109E881F9810488E3
:1023D000F589E02D9501A401B501CE010995E881AB
:1023E000F9810688F789E02DCE01DF91CF911F9109
:1023F0000F91FF90EF90DF90CF90BF90AF909F90A4
:102400008F9009940895EF92FF920F931F93DC0130
:10241000ED91FC9100A0F1A1E02D09951F910F9184
:10242000FF90EF9008950F931F93DC01ED91FC91C5
:10243000068CF78DE02D09951F910F9108950F934C
:102440001F93DC01ED91FC91048CF58DE02D099535
:102450001F910F910895DC01ED91FC910084F185AD
:10246000E02D09942F923F924F925F926F927F924C
:102470008F929F92AF92BF92CF92DF92EF92FF9294
:102480000F931F93CF93DF9300D000D000D0CDB730
:10249000DEB73C016A013E832D83FC82EB8258014A
:1024A000A41AB50AB7FE03C0B194A194B1088D80F7
:1024B0009E80861A970A97FE03C091948194910892
:1024C0008A149B045CF0902F812F0D811E819D83C7
:1024D0008E839C2D8D2D6B01692F782F0C151D057A
:1024E0005CF09D818E817E836D83692F782F902F84
:1024F000812F8601C92ED82E1601201A310A2B01F0
:102500002D813E81421A530A57FE03C051944194D3
:102510005108710137FE03C03FEFE31AF30AF59447
:10252000E7948D819E81861797075CF5A1E0B0E066
:10253000BA83A983C016D1064CF1D301ED91FC9169
:102540000484F585E02D2B813C81A8016D817E817D
:102550008A149B041CF04D815E81B801C30109956A
:10256000E418F508F7FE0AC02D813E8189819A8121
:10257000280F391F3E832D83E20CF31C0F5F1F4F82
:10258000D9CF2FEF3FEF3A832983D4CF26960FB6CA
:10259000F894DEBF0FBECDBFDF91CF911F910F9199
:1025A000FF90EF90DF90CF90BF90AF909F908F9073
:1025B0007F906F905F904F903F902F900895089577
:1025C00090E080E00895FC0101900020E9F7319748
:1025D000AF01481B590BBC0188E192E00C94410308
:1025E0008F929F92AF92BF920F931F93CF93DF93DF
:1025F000CDB7DEB7A1970FB6F894DEBF0FBECDBF43
:1026000019A2423008F44AE08E010F5D1F4F842E5C
:10261000912CB12CA12CA50194010E94E41BE62F62
:10262000B901CA01EA30F4F4E05DD801EE938D01FE
:10263000232B242B252B79F790E080E0109719F0BD
:10264000CD010E94E312A1960FB6F894DEBF0FBE33
:10265000CDBFDF91CF911F910F91BF90AF909F9011
:102660008F900895E95CE1CF4F925F926F927F92D5
:102670008F929F92AF92BF92CF92DF92EF92FF9292
:102680000F931F93CF936B017C01742EAC019B01C0
:102690000E94DF1B882399F083E491E0CF911F9182
:1026A0000F91FF90EF90DF90CF90BF90AF909F90F1
:1026B0008F907F906F905F904F900C94E312460143
:1026C0005701E894B7F82FEF3FEF4FE75FE7C501F9
:1026D000B4010E94DF1B81110DC02FEF3FEF4FE7C8
:1026E0005FE7C501B4010E94151A18161CF487E4AF
:1026F00091E0D4CF2FEF3FEF4FE75FE4C701B60182
:102700000E946D1B18161CF48BE491E0C7CF2FEFCD
:102710003FEF4FE75FECC701B6010E94151A87FD36
:10272000F3CF20E030E0A901C701B6010E94151ADD
:1027300010E000E087FF0AC06DE288E192E00E94AD
:10274000850F8C01F7FAF094F7F8F094C0E060E0A0
:1027500070E080E09FE37C1641F020E030E040E252
:1027600051E40E941A1ACF5FF6CFA70196010E948A
:10277000A9192B013C010E948C1A4B015C014AE013
:102780000E94F0127C01E00EF11ECC23C1F1C501C4
:10279000B4010E94BB1A9B01AC01C301B2010E94AB
:1027A000A8194B015C016EE288E192E00E94850F5E
:1027B000E80EF91EC15018F120E030E040E251E48B
:1027C000C501B4010E94721B2B013C010E948C1AAE
:1027D0004B01B12CA12C4AE0C501B4010E94F012BA
:1027E000E80EF91EC501B4010E94BB1A9B01AC01A1
:1027F000C301B2010E94A8194B015C01DBCFC701E4
:10280000CF911F910F91FF90EF90DF90CF90BF90ED
:10281000AF909F908F907F906F905F904F900895B2
:102820000E942A1CCF92DF92EF92FF920F931F9388
:10283000CF93DF93EC016A017B01C114D104E10461
:10284000F10439F4C12C48E4D42E48EEE42EFF24E0
:10285000F394FE01FF96C082D182E282F38281E28C
:102860008DAF80E28EAF369610818FA987FD07C0AD
:1028700061E00E949A0461E08FA90E944E0461E029
:1028800088AD0E949A0461E088AD0E944E048DA933
:10289000811182C040E052E16AE770E0C416D506BB
:1028A000E606F70640F476956795579547958F5F4E
:1028B0008630A1F787E0212F2C702065982F969500
:1028C000922B99A3809581708AA3812F90E0B0E02C
:1028D000A0E08BA39CA3ADA3BEA31FB7F8948091E7
:1028E0007001811127C0E1E2F6E08491E3E0F6E0B7
:1028F0009491E82FF0E0EE0FFF1FE859FA4FA591F1
:10290000B491EC91E92321F461E08AE00E944E0445
:1029100061E08AE00E949A048CB580618CBD8CB520
:1029200080648CBD61E08DE00E949A0461E08BE0E0
:102930000E949A04809170018F5F809370011FBF85
:102940008EA987FD75C061E00E949A0461E08EA99E
:102950000E944E0464E670E080E090E00E940B0567
:1029600060E08EA90E944E0464E670E080E090E092
:102970000E940B0561E08EA90E944E0468EC70E095
:1029800080E090E0DF91CF911F910F91FF90EF9049
:10299000DF90CF900C940B0507E116E0F12C81300D
:1029A000B9F461E08AA50E949A0460E08AA50E94B9
:1029B0004E0461E08CA50E949A0460E08CA50E9400
:1029C0004E048BA587FDBCCF60E00E949A04B8CF6F
:1029D000F8018491E82FF0E0EE0FFF1FE35FF94F5D
:1029E000859194912F8D38A12817390741F461E022
:1029F0008F2D0E949A0460E08F2D0E944E04F39464
:102A00000F5F1F4FF4E1FF12E3CF61E08EA50E943C
:102A10009A0461E08EA50E944E048FA587FD90CF99
:102A200061E00E949A0461E08FA50E944E0488CF65
:102A3000DF91CF911F910F91FF90EF90DF90CF909A
:102A400008951F920F920FB60F9211242F933F9368
:102A50004F935F936F937F938F939F93AF93BF93A6
:102A6000EF93FF938AE791E00E94BF03FF91EF91FC
:102A7000BF91AF919F918F917F916F915F914F9196
:102A80003F912F910F900FBE0F901F9018951F929E
:102A90000F920FB60F9211242F938F939F93EF9362
:102AA000FF93E0918A01F0918B018081E091900188
:102AB000F091910182FD1BC09081809193018F5F05
:102AC0008F7320919401821741F0E0919301F0E01F
:102AD000E658FE4F958F80939301FF91EF919F9160
:102AE0008F912F910F900FBE0F901F90189580819E
:102AF000F4CF1F920F920FB60F9211242F933F9392
:102B00008F939F93AF93BF938091720190917301C4
:102B1000A0917401B09175013091710123E0230FF0
:102B20002D3758F50196A11DB11D20937101809399
:102B3000720190937301A0937401B0937501809119
:102B4000760190917701A0917801B0917901019679
:102B5000A11DB11D8093760190937701A093780118
:102B6000B0937901BF91AF919F918F913F912F9138
:102B70000F900FBE0F901F90189526E8230F029616
:102B8000A11DB11DD2CFEAE7F1E01382128288EED7
:102B900093E0A0E0B0E084839583A683B78385E0CB
:102BA00091E09183808385EC90E09587848784EC25
:102BB00090E09787868780EC90E0918B808B81EC0A
:102BC00090E0938B828B82EC90E0958B848B86ECEB
:102BD00090E0978B868B118E128E138E148EA8E147
:102BE000B2E013961C921E92129720E830E01596E0
:102BF0003C932E93149780EA90E017969C938E93C3
:102C0000169719963C932E9318971B969C938E9328
:102C10001A9756961C9256971D961C921E921C97B8
:102C20001F961C921E921E9781E055968C93559785
:102C300054968C9354972FEF3FEF53963C932E93DB
:102C4000529751963C932E93509757968C93579743
:102C500058961C9258975A961C921E925997D59640
:102C60001C92D59787E0D6968C93D69785E0D79619
:102C70008C93D79786E0D8968C93D897DA961C9247
:102C80001E92D997DC961C921E92DB97DD961C92C1
:102C9000DD97DE961C92DE97109257021092580232
:102CA0001092590210925A0287E192E090969C93FA
:102CB0008E935F97EDE1F6E0E491F0E0EE0FFF1FF9
:102CC000E35FF94F859194915E969C938E935D9707
:102CD000EFEFF5E08491D3968C93D397ECE1F6E097
:102CE000E491F0E0EE0FFF1FE35FF94F259134917F
:102CF0005C963C932E935B97EEEFF5E0E491D196D2
:102D0000EC93D197E095D296EC93D297E82FE0958B
:102D1000D496EC93D49710925B0210925C021092BE
:102D20005D0287E191E08D939C930895CF93DF93AB
:102D30001F92CDB7DEB7789484B5826084BD84B528
:102D4000816084BD85B5826085BD85B5816085BDA6
:102D500080916E00816080936E001092810080915E
:102D600081008260809381008091810081608093E6
:102D70008100809180008160809380008091B1000B
:102D800084608093B1008091B00081608093B00036
:102D900080917A00846080937A0080917A008260CA
:102DA00080937A0080917A00816080937A0080918C
:102DB0007A00806880937A001092C10040E050E071
:102DC000BA0188E192E00E9412148EEB95E00E9415
:102DD000510B81EB95E00E94510B86E895E00E9433
:102DE000510B80EC8983BE016F5F7F4F88E192E0D9
:102DF0000E94E80B42E0F42EF0925E0260E088E16F
:102E000092E00E94580C6FEF7FEF88E192E00E9401
:102E10002E1161E088E192E00E94580C10E000E081
:102E200025E130E04EE450E062E070E090E080E0C8
:102E30000E94F90C0FE110E029E130E04EE450E08F
:102E400069E170E090E080E00E94F90C00EE17E08C
:102E500029E130E04EE450E062E370E090E080E091
:102E60000E94F90C00E018EF29E130E04EE450E058
:102E70006BE470E090E080E00E94F90CCC24CA94EE
:102E8000DC2CD0922902C092280210922B021092C0
:102E90002A02F0922C02F0922D0265E0A62EB12CAF
:102EA000B0922502A0922402B0922702A09226029C
:102EB0008FE491E00E94E31225E130E045E550E027
:102EC00062E070E08EE490E00E94F90C0FE118EFF0
:102ED00029E130E045E550E069E170E08EE490E002
:102EE0000E94F90C00EE1FEF29E130E045E550E0CB
:102EF00062E370E08EE490E00E94F90C10E000E0E4
:102F000029E130E045E550E06BE470E08EE490E0CC
:102F10000E94F90CD0922902C0922802812C78EFED
:102F2000972E90922B0280922A02F0922C02F0921D
:102F30002D028AE590E09093250280932402B092BE
:102F40002702A092260285E591E00E94E31200E0AC
:102F500018EF29E130E04CE950E066E670E083E0EC
:102F600090E00E94F90CD0922902C092280290921F
:102F70002B0280922A028FE090E0909325028093AA
:102F800024028AE690E090932702809326028BE544
:102F900091E00E94E312F0922C02F0922D0283E065
:102FA00080930001E3E02E2E312CEE24EA94FE2CD7
:102FB00000E510E0E0918A01F0918B0182E08083CE
:102FC000E0918601F09187011082E0918801F091F3
:102FD00089018FEC808310929201E0918E01F09133
:102FE0008F0186E08083E0918C01F0918D018081DA
:102FF00080618083E0918C01F0918D0180818860F7
:103000008083E0918C01F0918D01808180688083C4
:10301000E0918C01F0918D0180818F7D808334E679
:10302000C32ED12C812C912C540180E10E94CB0421
:10303000BC01990F880B990B0E94BD1A9B01AC0132
:10304000C501B4010E94A9194B015C0161E070E067
:1030500080E090E00E940B0591E0C91AD10829F7A1
:1030600029EC3BEF4FE55CE3C501B4010E94721B04
:1030700020E030E048EC52E40E941A1A2DEC3CECBF
:103080004CE85FE30E94721B2B013C013092250249
:10309000209224028EE190E09093270280932602F2
:1030A000F0922902E09228028FE190E090932B02A7
:1030B00080932A0287E691E00E94E31242E0C30176
:1030C000B2010E94341324E6C22ED12C812C912C03
:1030D00054018FE00E94CB04BC01990F880B990B1F
:1030E0000E94BD1A9B01AC01C501B4010E94A9193F
:1030F0004B015C0161E070E080E090E00E940B0514
:1031000091E0C91AD10829F72FE632E143E05DE3E7
:10311000C501B4010E94721B20E030E048EC52E48B
:103120000E941A1A2DEC3CEC4CE85FE30E94721BE3
:103130004B015C01309225022092240287E390E04B
:10314000909327028093260210922902109228025F
:1031500080EE97E090932B0280932A028AE691E01A
:103160000E94E31241E0C501B4010E943413309281
:103170002502209224021093270200932602F09247
:103180002902E092280280E098EF90932B0280932E
:103190002A028DE691E00E94E312A5019401C30189
:1031A000B2010E94721B41E00E94341394E6C92EC2
:1031B000D12C812C912C54018EE00E94CB04BC01B7
:1031C000990F880B990B0E94BD1A9B01AC01C50198
:1031D000B4010E94A9194B015C0161E070E080E03C
:1031E00090E00E940B0591E0C91AD10829F729EC5B
:1031F0003BEF4FE55CE3C501B4010E94721B20E088
:1032000030E048EC52E40E941A1A2DEC3CEC4CE8F9
:103210005FE30E94721B2B013C0110932502009377
:1032200024028EE190E09093270280932602F09290
:103230002902E09228028FE198EF90932B0280936D
:103240002A0287E691E00E94E31242E0C301B20144
:103250000E94341384E6C82ED12C812C912C540169
:1032600081E10E94CB04BC01990F880B990B0E944D
:10327000BD1A9B01AC01C501B4010E94A9194B0103
:103280005C0161E070E080E090E00E940B0591E05D
:10329000C91AD10829F72FE632E143E05DE3C50101
:1032A000B4010E94721B20E030E048EC52E40E941E
:1032B0001A1A2DEC3CEC4CE85FE30E94721B4B01A8
:1032C0005C01109325020093240287E390E0909321
:1032D000270280932602109229021092280280EE83
:1032E0009FEF90932B0280932A028AE691E00E943E
:1032F000E31241E0C501B4010E943413109325028A
:10330000009324021093270200932602F0922902D0
:10331000E092280210922B0210922A028DE691E090
:103320000E94E312A5019401C301B2010E94721B25
:1033300041E00E94341380E090E0892B09F43ACEFA
:103340000E94AB03882309F435CE0E94000032CEE0
:103350005058BB27AA270E94C0190C94331B0E9407
:10336000251B38F00E942C1B20F039F49F3F19F4E4
:1033700026F40C94221B0EF4E095E7FB0C941C1B26
:10338000E92F0E94441B58F3BA176207730784079A
:10339000950720F079F4A6F50C94661B0EF4E095E1
:1033A0000B2EBA2FA02D0B01B90190010C01CA01FF
:1033B000A0011124FF27591B99F0593F50F4503EAA
:1033C00068F11A16F040A22F232F342F4427585F9C
:1033D000F3CF469537952795A795F0405395C9F7B4
:1033E0007EF41F16BA0B620B730B840BBAF091506C
:1033F000A1F0FF0FBB1F661F771F881FC2F70EC00B
:10340000BA0F621F731F841F48F4879577956795DD
:10341000B795F7959E3F08F0B0CF9395880F08F0C9
:103420009927EE0F9795879508950E94F81A08F44A
:1034300081E008950E942E1A0C94331B0E942C1BCD
:1034400058F00E94251B40F029F45F3F29F00C94AE
:103450001C1B51110C94671B0C94221B0E94441BD3
:1034600068F39923B1F3552391F3951B550BBB27B3
:10347000AA2762177307840738F09F5F5F4F220FF8
:10348000331F441FAA1FA9F335D00E2E3AF0E0E8EF
:1034900032D091505040E695001CCAF72BD0FE2F39
:1034A00029D0660F771F881FBB1F261737074807CD
:1034B000AB07B0E809F0BB0B802DBF01FF27935885
:1034C0005F4F3AF09E3F510578F00C941C1B0C9412
:1034D000671B5F3FE4F3983ED4F386957795679535
:1034E000B795F7959F5FC9F7880F911D96958795BA
:1034F00097F90895E1E0660F771F881FBB1F6217D9
:1035000073078407BA0720F0621B730B840BBA0B96
:10351000EE1F88F7E09508950E944C1B88F09F5796
:1035200098F0B92F9927B751B0F0E1F0660F771FE7
:10353000881F991F1AF0BA95C9F714C0B13091F0DD
:103540000E94661BB1E008950C94661B672F782FCC
:103550008827B85F39F0B93FCCF3869577956795A2
:10356000B395D9F73EF490958095709561957F4F0E
:103570008F4F9F4F0895E89409C097FB3EF49095B4
:103580008095709561957F4F8F4F9F4F9923A9F03C
:10359000F92F96E9BB279395F695879577956795CB
:1035A000B795F111F8CFFAF4BB0F11F460FF1BC00F
:1035B0006F5F7F4F8F4F9F4F16C0882311F096E9A2
:1035C00011C0772321F09EE8872F762F05C0662350
:1035D00071F096E8862F70E060E02AF09A95660F09
:1035E000771F881FDAF7880F9695879597F90895C2
:1035F000990F0008550FAA0BE0E8FEEF1616170604
:10360000E807F907C0F012161306E407F50798F06B
:10361000621B730B840B950B39F40A2661F0232B84
:10362000242B252B21F408950A2609F4A140A69500
:103630008FEF811D811D089597F99F6780E870E0E5
:1036400060E008959FEF80EC089500240A94161618
:10365000170618060906089500240A941216130680
:10366000140605060895092E0394000C11F488230E
:1036700052F0BB0F40F4BF2B11F460FF04C06F5F2A
:103680007F4F8F4F9F4F089557FD9058440F551F00
:1036900059F05F3F71F04795880F97FB991F61F0D4
:1036A0009F3F79F087950895121613061406551F4B
:1036B000F2CF4695F1DF08C0161617061806991FB7
:1036C000F1CF86957105610508940895E894BB27AC
:1036D00066277727CB0197F908950E94F81A08F416
:1036E0008FEF08950E94851B0C94331B0E94251BAD
:1036F00038F00E942C1B20F0952311F00C941C1B19
:103700000C94221B11240C94671B0E94441B70F321
:10371000959FC1F3950F50E0551F629FF001729F76
:10372000BB27F00DB11D639FAA27F00DB11DAA1F85
:10373000649F6627B00DA11D661F829F2227B00DD2
:10374000A11D621F739FB00DA11D621F839FA00D5D
:10375000611D221F749F3327A00D611D231F849FAD
:10376000600D211D822F762F6A2F11249F57504004
:103770009AF0F1F088234AF0EE0FFF1FBB1F661F7F
:10378000771F881F91505040A9F79E3F510580F048
:103790000C941C1B0C94671B5F3FE4F3983ED4F31E
:1037A000869577956795B795F795E7959F5FC1F7EC
:1037B000FE2B880F911D9695879597F908950E9485
:1037C000F81A880B990B0895A1E21A2EAA1BBB1BAD
:1037D000FD010DC0AA1FBB1FEE1FFF1FA217B307DD
:1037E000E407F50720F0A21BB30BE40BF50B661FF3
:1037F000771F881F991F1A9469F7609570958095B7
:1038000090959B01AC01BD01CF0108950E940E1C53
:10381000332312F48A1B9B0B0C941F1CA29FB00134
:10382000B39FC001A39F700D811D1124911DB29FF4
:10383000700D811D1124911D08950E940E1CB7FF6B
:103840000895821B930B0895EE0FFF1F0590F491CE
:10385000E02D099481E090E0F8940C942F1CF894EA
:02386000FFCF98
:103862000100000000E10341036E032E049F037D6B
:1038720003910300000000850F4103E012DF12F004
:10388200063F0B0D0BA40A5909640A3212EE0C58BA
:103892000CD306EB075C08CD082E11B61057101298
:1038A2001471066E616E00696E66006F7666005076
:1038B2004F573A3100504F573A320045542044494D
:1038C20053434F56455200412000562000572000D6
:00000001FF
